:100000000C942A000C943F000C943F000C943F0089
:100010000C943F000C943F000C943F000C943F0064
:100020000C943F000C943F000C943F000C943F0054
:100030000C943F000C943F000C943F000C943F0044
:100040000C943F000C943F000C943F000C943F0034
:100050000C943F0011241FBECFE5D8E0DEBFCDBF1A
:1000600010E0A0E6B0E0E4EDF0E002C005900D92F3
:10007000A438B107D9F70E9441000C9468000C9491
:10008000000080E884BF84BF17BA8FEF84BB8ABBAF
:1000900070E060E09FEF86B39817E9F396B3292FDD
:1000A00030E04091820050918300241735073CF4E2
:1000B000220F331FF901E05AFF4F7081618175BB38
:1000C0006BBBE3EDF0E33197F1F700C00000E3CF45
:0400D000F894FFCFD2
:1000D4002570347034F25000356231C232324252EB
:1000E40013B343534394411256D3319352B2212252
:0400F40031A3110023
:00000001FF
