S01800004353455F3330365F5245474953544F522E737265636B
S11300000C942A000C943F000C943F000C943F0085
S11300100C943F000C943F000C943F000C943F0060
S11300200C943F000C943F000C943F000C943F0050
S11300300C943F000C943F000C943F000C943F0040
S11300400C943F000C943F000C943F000C943F0030
S11300500C943F0011241FBECFE5D8E0DEBFCDBF16
S113006010E0A0E6B0E0E2E4F1E002C005900D92F9
S1130070A836B107D9F70E9441000C949F000C9454
S1130080000080E884BF84BF1ABA17BA8FEF84BB1C
S113009080EF81BB30E001C0322FE9B346B320B317
S11300A0AE2FB0E0B595A795B595A795B595A7954D
S11300B0B595A795A770BB27A05ABF4F8C9150E167
S11300C0859FC0011124E770F0E0E05AFF4F908152
S11300D0892B85BB22FF11C080E0883038F4E82FDB
S11300E0F0E0E05AFF4F10828F5FF7CF87EA91E686
S11300F00197F1F700C00000D0CF832F822781FF42
S1130100CBCF31FF14C030FF12C0E42FE770F0E012
S1130110842F90E0959587959595879595958795E6
S113012095958795E05AFF4F8083407F42BB87EACD
S113013091E60197F1F700C00000322FAECFF8949A
S1050140FFCFEB
S10B0142000102030405060795
S9030000FC
