S013000041767250726163746963652E73726563BD
S11300000C942A000C9436000C9434000C943400A4
S11300100C9434000C9434000C9434000C9434008C
S11300200C9434000C9434000C9434000C9434007C
S11300300C9434000C9434000C9434000C9434006C
S11300400C9434000C9434000C9434000C9434005C
S11300500C94340011241FBECFE5D8E0DEBFCDBF21
S11300600E9455000C946A000C9400001F920F9299
S11300700FB60F9211242F938F939F938FEF8BBB07
S11300801BBE2FE78AE196E0215080409040E1F7C3
S113009000C0000080E48BBF1BBA9F918F912F9109
S11300A00F900FBE0F901F9018958FEF8ABB80E4BE
S11300B08BBF85B7826085BF85B78E7F85BF7894F7
S11300C02FE986E891E0215080409040E1F700C09C
S10B00D00000FFCFF894FFCFFC
S9030000FC
