S01B00004353455F3330365F444154415F4D454D4F52592E7372656385
S11300000C942A000C943C000C943C000C943C008E
S11300100C943C000C943C000C943C000C943C006C
S11300200C943C000C943C000C943C000C943C005C
S11300300C943C000C943C000C943C000C943C004C
S11300400C943C000C943C000C943C000C943C003C
S11300500C943C0011241FBECFE5D8E0DEBFCDBF19
S113006020E0A0E6B0E001C01D92A037B207E1F79E
S11300700E944A000C9492000C94000080E090E0EE
S11300808031910534F4FC01E05AFF4F108201964F
S1130090F7CF089580E884BF84BF80EF84BB17BA8C
S11300A08FEF8ABB81BB0E943E0090E080E002C0DB
S11300B08D2F912FC3B3DC2FDF7016B3C3FF09C09C
S11300C00E943E0087EA91E60197F1F700C0000024
S11300D01FC0282F2D2722FF1BC082FF13C080FFC3
S11300E011C0E92FEF70F0E0892F90E09595879586
S11300F0959587959595879595958795E05AFF4FA2
S1130100808382BB87EA91E60197F1F700C0000083
S1130110C1FFCECFE12FEF70F0E0E05AFF4F8081B6
S10B01208BBBC6CFF894FFCF9E
S9030000FC
